{
  "_format": "hh-sol-artifact-1",
  "contractName": "Voting",
  "sourceName": "contracts/Voting.sol",
  "abi": [
    {
      "inputs": [],
      "stateMutability": "nonpayable",
      "type": "constructor"
    },
    {
      "anonymous": false,
      "inputs": [
        {
          "indexed": true,
          "internalType": "address",
          "name": "previousOwner",
          "type": "address"
        },
        {
          "indexed": true,
          "internalType": "address",
          "name": "newOwner",
          "type": "address"
        }
      ],
      "name": "OwnershipTransferred",
      "type": "event"
    },
    {
      "anonymous": false,
      "inputs": [
        {
          "indexed": false,
          "internalType": "uint256",
          "name": "proposalId",
          "type": "uint256"
        }
      ],
      "name": "ProposalRegistered",
      "type": "event"
    },
    {
      "anonymous": false,
      "inputs": [
        {
          "indexed": false,
          "internalType": "address",
          "name": "voter",
          "type": "address"
        },
        {
          "indexed": false,
          "internalType": "uint256",
          "name": "proposalId",
          "type": "uint256"
        }
      ],
      "name": "Voted",
      "type": "event"
    },
    {
      "anonymous": false,
      "inputs": [
        {
          "indexed": false,
          "internalType": "address",
          "name": "voterAddress",
          "type": "address"
        }
      ],
      "name": "VoterRegistered",
      "type": "event"
    },
    {
      "anonymous": false,
      "inputs": [
        {
          "indexed": false,
          "internalType": "enum Voting.WorkflowStatus",
          "name": "previousStatus",
          "type": "uint8"
        },
        {
          "indexed": false,
          "internalType": "enum Voting.WorkflowStatus",
          "name": "newStatus",
          "type": "uint8"
        }
      ],
      "name": "WorkflowStatusChange",
      "type": "event"
    },
    {
      "inputs": [],
      "name": "endProposalsRegistration",
      "outputs": [],
      "stateMutability": "nonpayable",
      "type": "function"
    },
    {
      "inputs": [],
      "name": "endVoterRegistration",
      "outputs": [],
      "stateMutability": "nonpayable",
      "type": "function"
    },
    {
      "inputs": [],
      "name": "endVotingSession",
      "outputs": [],
      "stateMutability": "nonpayable",
      "type": "function"
    },
    {
      "inputs": [],
      "name": "getProposals",
      "outputs": [
        {
          "components": [
            {
              "internalType": "string",
              "name": "description",
              "type": "string"
            },
            {
              "internalType": "uint256",
              "name": "voteCount",
              "type": "uint256"
            }
          ],
          "internalType": "struct Voting.Proposal[]",
          "name": "",
          "type": "tuple[]"
        }
      ],
      "stateMutability": "view",
      "type": "function"
    },
    {
      "inputs": [],
      "name": "getVoters",
      "outputs": [
        {
          "internalType": "address[]",
          "name": "",
          "type": "address[]"
        }
      ],
      "stateMutability": "view",
      "type": "function"
    },
    {
      "inputs": [],
      "name": "getWinner",
      "outputs": [
        {
          "internalType": "string",
          "name": "",
          "type": "string"
        }
      ],
      "stateMutability": "view",
      "type": "function"
    },
    {
      "inputs": [],
      "name": "owner",
      "outputs": [
        {
          "internalType": "address",
          "name": "",
          "type": "address"
        }
      ],
      "stateMutability": "view",
      "type": "function"
    },
    {
      "inputs": [
        {
          "internalType": "uint256",
          "name": "",
          "type": "uint256"
        }
      ],
      "name": "proposals",
      "outputs": [
        {
          "internalType": "string",
          "name": "description",
          "type": "string"
        },
        {
          "internalType": "uint256",
          "name": "voteCount",
          "type": "uint256"
        }
      ],
      "stateMutability": "view",
      "type": "function"
    },
    {
      "inputs": [
        {
          "internalType": "address",
          "name": "_voter",
          "type": "address"
        }
      ],
      "name": "registerVoter",
      "outputs": [],
      "stateMutability": "nonpayable",
      "type": "function"
    },
    {
      "inputs": [],
      "name": "renounceOwnership",
      "outputs": [],
      "stateMutability": "nonpayable",
      "type": "function"
    },
    {
      "inputs": [],
      "name": "resetWorkflow",
      "outputs": [],
      "stateMutability": "nonpayable",
      "type": "function"
    },
    {
      "inputs": [],
      "name": "startProposalsRegistration",
      "outputs": [],
      "stateMutability": "nonpayable",
      "type": "function"
    },
    {
      "inputs": [],
      "name": "startVoterRegistration",
      "outputs": [],
      "stateMutability": "nonpayable",
      "type": "function"
    },
    {
      "inputs": [],
      "name": "startVotingSession",
      "outputs": [],
      "stateMutability": "nonpayable",
      "type": "function"
    },
    {
      "inputs": [],
      "name": "status",
      "outputs": [
        {
          "internalType": "enum Voting.WorkflowStatus",
          "name": "",
          "type": "uint8"
        }
      ],
      "stateMutability": "view",
      "type": "function"
    },
    {
      "inputs": [
        {
          "internalType": "string",
          "name": "_description",
          "type": "string"
        }
      ],
      "name": "submitProposal",
      "outputs": [],
      "stateMutability": "nonpayable",
      "type": "function"
    },
    {
      "inputs": [],
      "name": "tallyVotes",
      "outputs": [],
      "stateMutability": "nonpayable",
      "type": "function"
    },
    {
      "inputs": [
        {
          "internalType": "address",
          "name": "newOwner",
          "type": "address"
        }
      ],
      "name": "transferOwnership",
      "outputs": [],
      "stateMutability": "nonpayable",
      "type": "function"
    },
    {
      "inputs": [
        {
          "internalType": "uint256",
          "name": "_proposalId",
          "type": "uint256"
        }
      ],
      "name": "vote",
      "outputs": [],
      "stateMutability": "nonpayable",
      "type": "function"
    },
    {
      "inputs": [
        {
          "internalType": "uint256",
          "name": "",
          "type": "uint256"
        }
      ],
      "name": "voterAddresses",
      "outputs": [
        {
          "internalType": "address",
          "name": "",
          "type": "address"
        }
      ],
      "stateMutability": "view",
      "type": "function"
    },
    {
      "inputs": [
        {
          "internalType": "address",
          "name": "",
          "type": "address"
        }
      ],
      "name": "voters",
      "outputs": [
        {
          "internalType": "bool",
          "name": "isRegistered",
          "type": "bool"
        },
        {
          "internalType": "bool",
          "name": "hasVoted",
          "type": "bool"
        },
        {
          "internalType": "uint256",
          "name": "votedProposalId",
          "type": "uint256"
        }
      ],
      "stateMutability": "view",
      "type": "function"
    },
    {
      "inputs": [],
      "name": "winningProposalId",
      "outputs": [
        {
          "internalType": "uint256",
          "name": "",
          "type": "uint256"
        }
      ],
      "stateMutability": "view",
      "type": "function"
    }
  ],
  "bytecode": "0x6080604052348015600f57600080fd5b506017336028565b6000805460ff60a01b191690556078565b600080546001600160a01b038381166001600160a01b0319831681178455604051919092169283917f8be0079c531659141344cd1fd0a4f28419497f9722a3daafe3b4186f6b6457e09190a35050565b6116b1806100876000396000f3fe608060405234801561001057600080fd5b50600436106101225760003560e01c80638da5cb5b116100a85780638da5cb5b146101ea5780638e7ea5b214610204578063a3ec138d14610219578063a7bfab161461026a578063c64963c514610272578063cdd7225314610289578063d9b4ae2a1461029e578063dd0e2373146102a6578063e09b8c79146102b9578063ee74c678146102c1578063f2fde38b146102c957600080fd5b80630121b93f14610127578063013cf08b1461013c578063181cca1b14610166578063200d2ed21461016e578063373d6d5e1461018f578063378a2178146101a257806338db6dd3146101aa57806362564c48146101bd5780636c297445146101d2578063715018a6146101da5780637f6b21a0146101e2575b600080fd5b61013a6101353660046111ca565b6102dc565b005b61014f61014a3660046111ca565b6104cd565b60405161015d929190611229565b60405180910390f35b61013a610589565b60005461018290600160a01b900460ff1681565b60405161015d9190611283565b61013a61019d366004611297565b6105ac565b61013a61070e565b61013a6101b836600461130b565b61084c565b6101c56109fd565b60405161015d919061133b565b61013a610af8565b61013a610b8e565b61013a610ba2565b6000546001600160a01b03165b60405161015d91906113b4565b61020c610c7f565b60405161015d91906113c8565b61024d61022736600461130b565b6001602081905260009182526040909120805491015460ff808316926101009004169083565b60408051931515845291151560208401529082015260600161015d565b61013a610dd3565b61027b60035481565b60405190815260200161015d565b610291610e69565b60405161015d91906113db565b61013a610ecb565b6101f76102b43660046111ca565b610fa3565b61013a610fcd565b61013a611011565b61013a6102d736600461130b565b6110a7565b3360009081526001602052604090205460ff166103145760405162461bcd60e51b815260040161030b90611427565b60405180910390fd5b6003600054600160a01b900460ff1660058111156103345761033461124b565b1461038d5760405162461bcd60e51b8152602060048201526024808201527f4c612073657373696f6e20646520766f7465206e2765737420706173206f75766044820152636572746560e01b606482015260840161030b565b33600090815260016020526040902054610100900460ff16156103e85760405162461bcd60e51b8152602060048201526013602482015272566f7573206176657a2064656a6120766f746560681b604482015260640161030b565b60025481106104365760405162461bcd60e51b815260206004820152601a60248201527949442064652070726f706f736974696f6e20696e76616c69646560301b604482015260640161030b565b336000908152600160208190526040909120805461ff00191661010017815501819055600280548290811061046d5761046d611458565b60009182526020822060016002909202010180549161048b83611484565b909155505060408051338152602081018390527f4d99b957a2bc29a30ebd96a7be8e68fe50a3c701db28a91436490b7d53870ca491015b60405180910390a150565b600281815481106104dd57600080fd5b90600052602060002090600202016000915090508060000180546105009061149d565b80601f016020809104026020016040519081016040528092919081815260200182805461052c9061149d565b80156105795780601f1061054e57610100808354040283529160200191610579565b820191906000526020600020905b81548152906001019060200180831161055c57829003601f168201915b5050505050908060010154905082565b610591611120565b60008054819060ff60a01b1916600160a01b825b0217905550565b3360009081526001602052604090205460ff166105db5760405162461bcd60e51b815260040161030b90611427565b6001600054600160a01b900460ff1660058111156105fb576105fb61124b565b146106565760405162461bcd60e51b815260206004820152602560248201527f456e72656769737472656d656e74206465732070726f706f736974696f6e73206044820152646665726d6560d81b606482015260840161030b565b6040805160606020601f85018190040282018101835291810183815260029282919086908690819085018382808284376000920182905250938552505050602091820181905283546001810185559381522081519192600202019081906106bd908261153c565b50602091909101516001918201556002547f92e393e9b54e2f801d3ea4beb0c5e71a21cc34a5d34b77d0fb8a3aa1650dc18f916106f9916115fb565b60405190815260200160405180910390a15050565b610716611120565b6004600054600160a01b900460ff1660058111156107365761073661124b565b1461078d5760405162461bcd60e51b815260206004820152602160248201527f4c657320766f746573206e6520736f6e742070617320656e636f726520636c6f6044820152607360f81b606482015260840161030b565b6000805b6002548110156107fe5781600282815481106107af576107af611458565b90600052602060002090600202016001015411156107f657600281815481106107da576107da611458565b9060005260206000209060020201600101549150806003819055505b600101610791565b5060008051602061165c833981519152600060149054906101000a900460ff16600560405161082e92919061160e565b60405180910390a1506000805460ff60a01b1916600560a01b179055565b610854611120565b60008054600160a01b900460ff1660058111156108735761087361124b565b146108cf5760405162461bcd60e51b815260206004820152602660248201527f4c27696e736372697074696f6e2064657320656c6563746575727320657374206044820152656665726d656560d01b606482015260840161030b565b6001600160a01b03811660009081526001602052604090205460ff16156109305760405162461bcd60e51b8152602060048201526015602482015274115b1958dd195d5c8819195a98481a5b9cd8dc9a5d605a1b604482015260640161030b565b604080516060810182526001808252600060208084018281528486018381526001600160a01b0388168085529285905286842095518654925161ffff1990931690151561ff0019161761010092151592909202919091178555519383019390935560048054928301815590527f8a35acfbc15ff81a39ae7d344fd709f28e8600b4aa8c65c6b64bfe7fe36bd19b0180546001600160a01b0319169091179055517fb6be2187d059cc2a55fe29e0e503b566e1e0f8c8780096e185429350acffd3dd906104c29083906113b4565b60606002805480602002602001604051908101604052809291908181526020016000905b82821015610aef5783829060005260206000209060020201604051806040016040529081600082018054610a549061149d565b80601f0160208091040260200160405190810160405280929190818152602001828054610a809061149d565b8015610acd5780601f10610aa257610100808354040283529160200191610acd565b820191906000526020600020905b815481529060010190602001808311610ab057829003601f168201915b5050505050815260200160018201548152505081526020019060010190610a21565b50505050905090565b610b00611120565b6001600054600160a01b900460ff166005811115610b2057610b2061124b565b14610b3d5760405162461bcd60e51b815260040161030b90611629565b60008051602061165c833981519152600060149054906101000a900460ff166002604051610b6c92919061160e565b60405180910390a1600080546002919060ff60a01b1916600160a01b836105a5565b610b96611120565b610ba0600061117a565b565b610baa611120565b60008054600160a01b900460ff166005811115610bc957610bc961124b565b14610c2e5760405162461bcd60e51b815260206004820152602f60248201527f4c27656e72656769737472656d656e742064657320656c65637465757273206560448201526e73742064656a61207465726d696e6560881b606482015260840161030b565b60008051602061165c833981519152600060149054906101000a900460ff166001604051610c5d92919061160e565b60405180910390a1600080546001919060ff60a01b1916600160a01b836105a5565b60606005600054600160a01b900460ff166005811115610ca157610ca161124b565b14610cfe5760405162461bcd60e51b815260206004820152602760248201527f4c6520766f7465206e27612070617320656e636f72652065746520636f6d70746044820152666162696c69736560c81b606482015260840161030b565b6000600260035481548110610d1557610d15611458565b9060005260206000209060020201604051806040016040529081600082018054610d3e9061149d565b80601f0160208091040260200160405190810160405280929190818152602001828054610d6a9061149d565b8015610db75780601f10610d8c57610100808354040283529160200191610db7565b820191906000526020600020905b815481529060010190602001808311610d9a57829003601f168201915b5050509183525050600191909101546020909101525192915050565b610ddb611120565b6003600054600160a01b900460ff166005811115610dfb57610dfb61124b565b14610e185760405162461bcd60e51b815260040161030b90611629565b60008051602061165c833981519152600060149054906101000a900460ff166004604051610e4792919061160e565b60405180910390a1600080546004919060ff60a01b1916600160a01b836105a5565b60606004805480602002602001604051908101604052809291908181526020018280548015610ec157602002820191906000526020600020905b81546001600160a01b03168152600190910190602001808311610ea3575b5050505050905090565b610ed3611120565b60008054600160a01b900460ff166005811115610ef257610ef261124b565b14610f585760405162461bcd60e51b815260206004820152603060248201527f4c27656e72656769737472656d656e742064657320656c65637465757273206560448201526f73742064656a6120636f6d6d656e636560801b606482015260840161030b565b6000805460405160008051602061165c83398151915292610f8392600160a01b900460ff169161160e565b60405180910390a160008054819060ff60a01b1916600160a01b826105a5565b60048181548110610fb357600080fd5b6000918252602090912001546001600160a01b0316905081565b610fd5611120565b60008054600160a01b900460ff166005811115610ff457610ff461124b565b14610c2e5760405162461bcd60e51b815260040161030b90611629565b611019611120565b6002600054600160a01b900460ff1660058111156110395761103961124b565b146110565760405162461bcd60e51b815260040161030b90611629565b60008051602061165c833981519152600060149054906101000a900460ff16600360405161108592919061160e565b60405180910390a1600080546003919060ff60a01b1916600160a01b836105a5565b6110af611120565b6001600160a01b0381166111145760405162461bcd60e51b815260206004820152602660248201527f4f776e61626c653a206e6577206f776e657220697320746865207a65726f206160448201526564647265737360d01b606482015260840161030b565b61111d8161117a565b50565b6000546001600160a01b03163314610ba05760405162461bcd60e51b815260206004820181905260248201527f4f776e61626c653a2063616c6c6572206973206e6f7420746865206f776e6572604482015260640161030b565b600080546001600160a01b038381166001600160a01b0319831681178455604051919092169283917f8be0079c531659141344cd1fd0a4f28419497f9722a3daafe3b4186f6b6457e09190a35050565b6000602082840312156111dc57600080fd5b5035919050565b6000815180845260005b81811015611209576020818501810151868301820152016111ed565b506000602082860101526020601f19601f83011685010191505092915050565b60408152600061123c60408301856111e3565b90508260208301529392505050565b634e487b7160e01b600052602160045260246000fd5b6006811061127f57634e487b7160e01b600052602160045260246000fd5b9052565b602081016112918284611261565b92915050565b600080602083850312156112aa57600080fd5b823567ffffffffffffffff8111156112c157600080fd5b8301601f810185136112d257600080fd5b803567ffffffffffffffff8111156112e957600080fd5b8560208284010111156112fb57600080fd5b6020919091019590945092505050565b60006020828403121561131d57600080fd5b81356001600160a01b038116811461133457600080fd5b9392505050565b6000602082016020835280845180835260408501915060408160051b86010192506020860160005b828110156113a857603f19878603018452815180516040875261138960408801826111e3565b6020928301519783019790975250938401939190910190600101611363565b50929695505050505050565b6001600160a01b0391909116815260200190565b60208152600061133460208301846111e3565b602080825282518282018190526000918401906040840190835b8181101561141c5783516001600160a01b03168352602093840193909201916001016113f5565b509095945050505050565b602080825260179082015276159bdd5cc81b89d95d195cc81c185cc81a5b9cd8dc9a5d604a1b604082015260600190565b634e487b7160e01b600052603260045260246000fd5b634e487b7160e01b600052601160045260246000fd5b6000600182016114965761149661146e565b5060010190565b600181811c908216806114b157607f821691505b6020821081036114d157634e487b7160e01b600052602260045260246000fd5b50919050565b634e487b7160e01b600052604160045260246000fd5b601f82111561153757806000526020600020601f840160051c810160208510156115145750805b601f840160051c820191505b818110156115345760008155600101611520565b50505b505050565b815167ffffffffffffffff811115611556576115566114d7565b61156a81611564845461149d565b846114ed565b6020601f82116001811461159e57600083156115865750848201515b600019600385901b1c1916600184901b178455611534565b600084815260208120601f198516915b828110156115ce57878501518255602094850194600190920191016115ae565b50848210156115ec5786840151600019600387901b60f8161c191681555b50505050600190811b01905550565b818103818111156112915761129161146e565b6040810161161c8285611261565b6113346020830184611261565b6020808252601890820152774d617576616973206574617420647520776f726b666c6f7760401b60408201526060019056fe0a97a4ee45751e2abf3e4fc8946939630b11b371ea8ae39ccdc3056e98f5cc3fa26469706673582212208fd98548a11dd6fcd88ddfe41216fce49642ddfef1d96daec22328f88107377864736f6c634300081c0033",
  "linkReferences": {},
  "deployedLinkReferences": {}
}