{
  "_format": "hh-sol-artifact-1",
  "contractName": "Voting",
  "sourceName": "contracts/Voting.sol",
  "abi": [
    {
      "inputs": [],
      "stateMutability": "nonpayable",
      "type": "constructor"
    },
    {
      "inputs": [
        {
          "internalType": "address",
          "name": "owner",
          "type": "address"
        }
      ],
      "name": "OwnableInvalidOwner",
      "type": "error"
    },
    {
      "inputs": [
        {
          "internalType": "address",
          "name": "account",
          "type": "address"
        }
      ],
      "name": "OwnableUnauthorizedAccount",
      "type": "error"
    },
    {
      "anonymous": false,
      "inputs": [
        {
          "indexed": true,
          "internalType": "address",
          "name": "previousOwner",
          "type": "address"
        },
        {
          "indexed": true,
          "internalType": "address",
          "name": "newOwner",
          "type": "address"
        }
      ],
      "name": "OwnershipTransferred",
      "type": "event"
    },
    {
      "anonymous": false,
      "inputs": [
        {
          "indexed": false,
          "internalType": "uint256",
          "name": "proposalId",
          "type": "uint256"
        }
      ],
      "name": "ProposalRegistered",
      "type": "event"
    },
    {
      "anonymous": false,
      "inputs": [
        {
          "indexed": false,
          "internalType": "address",
          "name": "voter",
          "type": "address"
        },
        {
          "indexed": false,
          "internalType": "uint256",
          "name": "proposalId",
          "type": "uint256"
        }
      ],
      "name": "Voted",
      "type": "event"
    },
    {
      "anonymous": false,
      "inputs": [
        {
          "indexed": false,
          "internalType": "address",
          "name": "voterAddress",
          "type": "address"
        }
      ],
      "name": "VoterRegistered",
      "type": "event"
    },
    {
      "anonymous": false,
      "inputs": [
        {
          "indexed": false,
          "internalType": "enum Voting.WorkflowStatus",
          "name": "previousStatus",
          "type": "uint8"
        },
        {
          "indexed": false,
          "internalType": "enum Voting.WorkflowStatus",
          "name": "newStatus",
          "type": "uint8"
        }
      ],
      "name": "WorkflowStatusChange",
      "type": "event"
    },
    {
      "inputs": [],
      "name": "endProposalsRegistration",
      "outputs": [],
      "stateMutability": "nonpayable",
      "type": "function"
    },
    {
      "inputs": [],
      "name": "endVoterRegistration",
      "outputs": [],
      "stateMutability": "nonpayable",
      "type": "function"
    },
    {
      "inputs": [],
      "name": "endVotingSession",
      "outputs": [],
      "stateMutability": "nonpayable",
      "type": "function"
    },
    {
      "inputs": [],
      "name": "getWinner",
      "outputs": [
        {
          "internalType": "string",
          "name": "",
          "type": "string"
        }
      ],
      "stateMutability": "view",
      "type": "function"
    },
    {
      "inputs": [],
      "name": "owner",
      "outputs": [
        {
          "internalType": "address",
          "name": "",
          "type": "address"
        }
      ],
      "stateMutability": "view",
      "type": "function"
    },
    {
      "inputs": [
        {
          "internalType": "uint256",
          "name": "",
          "type": "uint256"
        }
      ],
      "name": "proposals",
      "outputs": [
        {
          "internalType": "string",
          "name": "description",
          "type": "string"
        },
        {
          "internalType": "uint256",
          "name": "voteCount",
          "type": "uint256"
        }
      ],
      "stateMutability": "view",
      "type": "function"
    },
    {
      "inputs": [
        {
          "internalType": "address",
          "name": "_voter",
          "type": "address"
        }
      ],
      "name": "registerVoter",
      "outputs": [],
      "stateMutability": "nonpayable",
      "type": "function"
    },
    {
      "inputs": [],
      "name": "renounceOwnership",
      "outputs": [],
      "stateMutability": "nonpayable",
      "type": "function"
    },
    {
      "inputs": [],
      "name": "startProposalsRegistration",
      "outputs": [],
      "stateMutability": "nonpayable",
      "type": "function"
    },
    {
      "inputs": [],
      "name": "startVoterRegistration",
      "outputs": [],
      "stateMutability": "nonpayable",
      "type": "function"
    },
    {
      "inputs": [],
      "name": "startVotingSession",
      "outputs": [],
      "stateMutability": "nonpayable",
      "type": "function"
    },
    {
      "inputs": [],
      "name": "status",
      "outputs": [
        {
          "internalType": "enum Voting.WorkflowStatus",
          "name": "",
          "type": "uint8"
        }
      ],
      "stateMutability": "view",
      "type": "function"
    },
    {
      "inputs": [
        {
          "internalType": "string",
          "name": "_description",
          "type": "string"
        }
      ],
      "name": "submitProposal",
      "outputs": [],
      "stateMutability": "nonpayable",
      "type": "function"
    },
    {
      "inputs": [],
      "name": "tallyVotes",
      "outputs": [],
      "stateMutability": "nonpayable",
      "type": "function"
    },
    {
      "inputs": [
        {
          "internalType": "address",
          "name": "newOwner",
          "type": "address"
        }
      ],
      "name": "transferOwnership",
      "outputs": [],
      "stateMutability": "nonpayable",
      "type": "function"
    },
    {
      "inputs": [
        {
          "internalType": "uint256",
          "name": "_proposalId",
          "type": "uint256"
        }
      ],
      "name": "vote",
      "outputs": [],
      "stateMutability": "nonpayable",
      "type": "function"
    },
    {
      "inputs": [
        {
          "internalType": "address",
          "name": "",
          "type": "address"
        }
      ],
      "name": "voters",
      "outputs": [
        {
          "internalType": "bool",
          "name": "isRegistered",
          "type": "bool"
        },
        {
          "internalType": "bool",
          "name": "hasVoted",
          "type": "bool"
        },
        {
          "internalType": "uint256",
          "name": "votedProposalId",
          "type": "uint256"
        }
      ],
      "stateMutability": "view",
      "type": "function"
    },
    {
      "inputs": [],
      "name": "winningProposalId",
      "outputs": [
        {
          "internalType": "uint256",
          "name": "",
          "type": "uint256"
        }
      ],
      "stateMutability": "view",
      "type": "function"
    }
  ],
  "bytecode": "0x608060405234801561001057600080fd5b5033600073ffffffffffffffffffffffffffffffffffffffff168173ffffffffffffffffffffffffffffffffffffffff16036100845760006040517f1e4fbdf700000000000000000000000000000000000000000000000000000000815260040161007b91906101c8565b60405180910390fd5b610093816100c360201b60201c565b5060008060146101000a81548160ff021916908360058111156100b9576100b86101e3565b5b0217905550610212565b60008060009054906101000a900473ffffffffffffffffffffffffffffffffffffffff169050816000806101000a81548173ffffffffffffffffffffffffffffffffffffffff021916908373ffffffffffffffffffffffffffffffffffffffff1602179055508173ffffffffffffffffffffffffffffffffffffffff168173ffffffffffffffffffffffffffffffffffffffff167f8be0079c531659141344cd1fd0a4f28419497f9722a3daafe3b4186f6b6457e060405160405180910390a35050565b600073ffffffffffffffffffffffffffffffffffffffff82169050919050565b60006101b282610187565b9050919050565b6101c2816101a7565b82525050565b60006020820190506101dd60008301846101b9565b92915050565b7f4e487b7100000000000000000000000000000000000000000000000000000000600052602160045260246000fd5b612368806102216000396000f3fe608060405234801561001057600080fd5b50600436106101165760003560e01c80638da5cb5b116100a2578063c64963c511610071578063c64963c51461025e578063d9b4ae2a1461027c578063e09b8c7914610286578063ee74c67814610290578063f2fde38b1461029a57610116565b80638da5cb5b146101e65780638e7ea5b214610204578063a3ec138d14610222578063a7bfab161461025457610116565b8063378a2178116100e9578063378a2178146101a257806338db6dd3146101ac5780636c297445146101c8578063715018a6146101d25780637f6b21a0146101dc57610116565b80630121b93f1461011b578063013cf08b14610137578063200d2ed214610168578063373d6d5e14610186575b600080fd5b6101356004803603810190610130919061155b565b6102b6565b005b610151600480360381019061014c919061155b565b6105aa565b60405161015f929190611627565b60405180910390f35b610170610666565b60405161017d91906116ce565b60405180910390f35b6101a0600480360381019061019b919061174e565b610679565b005b6101aa610871565b005b6101c660048036038101906101c191906117f9565b6109e2565b005b6101d0610bd8565b005b6101da610ccc565b005b6101e4610ce0565b005b6101ee610dd4565b6040516101fb9190611835565b60405180910390f35b61020c610dfd565b6040516102199190611850565b60405180910390f35b61023c600480360381019061023791906117f9565b610f29565b60405161024b9392919061188d565b60405180910390f35b61025c610f6d565b005b610266611061565b60405161027391906118c4565b60405180910390f35b610284611067565b005b61028e61115a565b005b61029861124e565b005b6102b460048036038101906102af91906117f9565b611342565b005b600160003373ffffffffffffffffffffffffffffffffffffffff1673ffffffffffffffffffffffffffffffffffffffff16815260200190815260200160002060000160009054906101000a900460ff16610345576040517f08c379a000000000000000000000000000000000000000000000000000000000815260040161033c9061192b565b60405180910390fd5b6003600581111561035957610358611657565b5b600060149054906101000a900460ff16600581111561037b5761037a611657565b5b146103bb576040517f08c379a00000000000000000000000000000000000000000000000000000000081526004016103b2906119bd565b60405180910390fd5b600160003373ffffffffffffffffffffffffffffffffffffffff1673ffffffffffffffffffffffffffffffffffffffff16815260200190815260200160002060000160019054906101000a900460ff161561044b576040517f08c379a000000000000000000000000000000000000000000000000000000000815260040161044290611a29565b60405180910390fd5b6002805490508110610492576040517f08c379a000000000000000000000000000000000000000000000000000000000815260040161048990611a95565b60405180910390fd5b60018060003373ffffffffffffffffffffffffffffffffffffffff1673ffffffffffffffffffffffffffffffffffffffff16815260200190815260200160002060000160016101000a81548160ff02191690831515021790555080600160003373ffffffffffffffffffffffffffffffffffffffff1673ffffffffffffffffffffffffffffffffffffffff168152602001908152602001600020600101819055506002818154811061054757610546611ab5565b5b9060005260206000209060020201600101600081548092919061056990611b13565b91905055507f4d99b957a2bc29a30ebd96a7be8e68fe50a3c701db28a91436490b7d53870ca4338260405161059f929190611b5b565b60405180910390a150565b600281815481106105ba57600080fd5b90600052602060002090600202016000915090508060000180546105dd90611bb3565b80601f016020809104026020016040519081016040528092919081815260200182805461060990611bb3565b80156106565780601f1061062b57610100808354040283529160200191610656565b820191906000526020600020905b81548152906001019060200180831161063957829003601f168201915b5050505050908060010154905082565b600060149054906101000a900460ff1681565b600160003373ffffffffffffffffffffffffffffffffffffffff1673ffffffffffffffffffffffffffffffffffffffff16815260200190815260200160002060000160009054906101000a900460ff16610708576040517f08c379a00000000000000000000000000000000000000000000000000000000081526004016106ff9061192b565b60405180910390fd5b6001600581111561071c5761071b611657565b5b600060149054906101000a900460ff16600581111561073e5761073d611657565b5b1461077e576040517f08c379a000000000000000000000000000000000000000000000000000000000815260040161077590611c56565b60405180910390fd5b6002604051806040016040528084848080601f016020809104026020016040519081016040528093929190818152602001838380828437600081840152601f19601f8201169050808301925050505050505081526020016000815250908060018154018082558091505060019003906000526020600020906002020160009091909190915060008201518160000190816108189190611e51565b506020820151816001015550507f92e393e9b54e2f801d3ea4beb0c5e71a21cc34a5d34b77d0fb8a3aa1650dc18f60016002805490506108589190611f23565b60405161086591906118c4565b60405180910390a15050565b6108796113c8565b6004600581111561088d5761088c611657565b5b600060149054906101000a900460ff1660058111156108af576108ae611657565b5b146108ef576040517f08c379a00000000000000000000000000000000000000000000000000000000081526004016108e690611fc9565b60405180910390fd5b6000805b60028054905081101561096a57816002828154811061091557610914611ab5565b5b906000526020600020906002020160010154111561095d576002818154811061094157610940611ab5565b5b9060005260206000209060020201600101549150806003819055505b80806001019150506108f3565b507f0a97a4ee45751e2abf3e4fc8946939630b11b371ea8ae39ccdc3056e98f5cc3f600060149054906101000a900460ff1660056040516109ac929190611fe9565b60405180910390a16005600060146101000a81548160ff021916908360058111156109da576109d9611657565b5b021790555050565b6109ea6113c8565b600060058111156109fe576109fd611657565b5b600060149054906101000a900460ff166005811115610a2057610a1f611657565b5b14610a60576040517f08c379a0000000000000000000000000000000000000000000000000000000008152600401610a5790612084565b60405180910390fd5b600160008273ffffffffffffffffffffffffffffffffffffffff1673ffffffffffffffffffffffffffffffffffffffff16815260200190815260200160002060000160009054906101000a900460ff1615610af0576040517f08c379a0000000000000000000000000000000000000000000000000000000008152600401610ae7906120f0565b60405180910390fd5b60405180606001604052806001151581526020016000151581526020016000815250600160008373ffffffffffffffffffffffffffffffffffffffff1673ffffffffffffffffffffffffffffffffffffffff16815260200190815260200160002060008201518160000160006101000a81548160ff02191690831515021790555060208201518160000160016101000a81548160ff021916908315150217905550604082015181600101559050507fb6be2187d059cc2a55fe29e0e503b566e1e0f8c8780096e185429350acffd3dd81604051610bcd9190611835565b60405180910390a150565b610be06113c8565b60016005811115610bf457610bf3611657565b5b600060149054906101000a900460ff166005811115610c1657610c15611657565b5b14610c56576040517f08c379a0000000000000000000000000000000000000000000000000000000008152600401610c4d9061215c565b60405180910390fd5b7f0a97a4ee45751e2abf3e4fc8946939630b11b371ea8ae39ccdc3056e98f5cc3f600060149054906101000a900460ff166002604051610c97929190611fe9565b60405180910390a16002600060146101000a81548160ff02191690836005811115610cc557610cc4611657565b5b0217905550565b610cd46113c8565b610cde600061144f565b565b610ce86113c8565b60006005811115610cfc57610cfb611657565b5b600060149054906101000a900460ff166005811115610d1e57610d1d611657565b5b14610d5e576040517f08c379a0000000000000000000000000000000000000000000000000000000008152600401610d55906121ee565b60405180910390fd5b7f0a97a4ee45751e2abf3e4fc8946939630b11b371ea8ae39ccdc3056e98f5cc3f600060149054906101000a900460ff166001604051610d9f929190611fe9565b60405180910390a16001600060146101000a81548160ff02191690836005811115610dcd57610dcc611657565b5b0217905550565b60008060009054906101000a900473ffffffffffffffffffffffffffffffffffffffff16905090565b6060600580811115610e1257610e11611657565b5b600060149054906101000a900460ff166005811115610e3457610e33611657565b5b14610e74576040517f08c379a0000000000000000000000000000000000000000000000000000000008152600401610e6b90612280565b60405180910390fd5b600260035481548110610e8a57610e89611ab5565b5b90600052602060002090600202016000018054610ea690611bb3565b80601f0160208091040260200160405190810160405280929190818152602001828054610ed290611bb3565b8015610f1f5780601f10610ef457610100808354040283529160200191610f1f565b820191906000526020600020905b815481529060010190602001808311610f0257829003601f168201915b5050505050905090565b60016020528060005260406000206000915090508060000160009054906101000a900460ff16908060000160019054906101000a900460ff16908060010154905083565b610f756113c8565b60036005811115610f8957610f88611657565b5b600060149054906101000a900460ff166005811115610fab57610faa611657565b5b14610feb576040517f08c379a0000000000000000000000000000000000000000000000000000000008152600401610fe29061215c565b60405180910390fd5b7f0a97a4ee45751e2abf3e4fc8946939630b11b371ea8ae39ccdc3056e98f5cc3f600060149054906101000a900460ff16600460405161102c929190611fe9565b60405180910390a16004600060146101000a81548160ff0219169083600581111561105a57611059611657565b5b0217905550565b60035481565b61106f6113c8565b6000600581111561108357611082611657565b5b600060149054906101000a900460ff1660058111156110a5576110a4611657565b5b146110e5576040517f08c379a00000000000000000000000000000000000000000000000000000000081526004016110dc90612312565b60405180910390fd5b7f0a97a4ee45751e2abf3e4fc8946939630b11b371ea8ae39ccdc3056e98f5cc3f600060149054906101000a900460ff166000604051611126929190611fe9565b60405180910390a160008060146101000a81548160ff0219169083600581111561115357611152611657565b5b0217905550565b6111626113c8565b6000600581111561117657611175611657565b5b600060149054906101000a900460ff16600581111561119857611197611657565b5b146111d8576040517f08c379a00000000000000000000000000000000000000000000000000000000081526004016111cf9061215c565b60405180910390fd5b7f0a97a4ee45751e2abf3e4fc8946939630b11b371ea8ae39ccdc3056e98f5cc3f600060149054906101000a900460ff166001604051611219929190611fe9565b60405180910390a16001600060146101000a81548160ff0219169083600581111561124757611246611657565b5b0217905550565b6112566113c8565b6002600581111561126a57611269611657565b5b600060149054906101000a900460ff16600581111561128c5761128b611657565b5b146112cc576040517f08c379a00000000000000000000000000000000000000000000000000000000081526004016112c39061215c565b60405180910390fd5b7f0a97a4ee45751e2abf3e4fc8946939630b11b371ea8ae39ccdc3056e98f5cc3f600060149054906101000a900460ff16600360405161130d929190611fe9565b60405180910390a16003600060146101000a81548160ff0219169083600581111561133b5761133a611657565b5b0217905550565b61134a6113c8565b600073ffffffffffffffffffffffffffffffffffffffff168173ffffffffffffffffffffffffffffffffffffffff16036113bc5760006040517f1e4fbdf70000000000000000000000000000000000000000000000000000000081526004016113b39190611835565b60405180910390fd5b6113c58161144f565b50565b6113d0611513565b73ffffffffffffffffffffffffffffffffffffffff166113ee610dd4565b73ffffffffffffffffffffffffffffffffffffffff161461144d57611411611513565b6040517f118cdaa70000000000000000000000000000000000000000000000000000000081526004016114449190611835565b60405180910390fd5b565b60008060009054906101000a900473ffffffffffffffffffffffffffffffffffffffff169050816000806101000a81548173ffffffffffffffffffffffffffffffffffffffff021916908373ffffffffffffffffffffffffffffffffffffffff1602179055508173ffffffffffffffffffffffffffffffffffffffff168173ffffffffffffffffffffffffffffffffffffffff167f8be0079c531659141344cd1fd0a4f28419497f9722a3daafe3b4186f6b6457e060405160405180910390a35050565b600033905090565b600080fd5b600080fd5b6000819050919050565b61153881611525565b811461154357600080fd5b50565b6000813590506115558161152f565b92915050565b6000602082840312156115715761157061151b565b5b600061157f84828501611546565b91505092915050565b600081519050919050565b600082825260208201905092915050565b60005b838110156115c25780820151818401526020810190506115a7565b60008484015250505050565b6000601f19601f8301169050919050565b60006115ea82611588565b6115f48185611593565b93506116048185602086016115a4565b61160d816115ce565b840191505092915050565b61162181611525565b82525050565b6000604082019050818103600083015261164181856115df565b90506116506020830184611618565b9392505050565b7f4e487b7100000000000000000000000000000000000000000000000000000000600052602160045260246000fd5b6006811061169757611696611657565b5b50565b60008190506116a882611686565b919050565b60006116b88261169a565b9050919050565b6116c8816116ad565b82525050565b60006020820190506116e360008301846116bf565b92915050565b600080fd5b600080fd5b600080fd5b60008083601f84011261170e5761170d6116e9565b5b8235905067ffffffffffffffff81111561172b5761172a6116ee565b5b602083019150836001820283011115611747576117466116f3565b5b9250929050565b600080602083850312156117655761176461151b565b5b600083013567ffffffffffffffff81111561178357611782611520565b5b61178f858286016116f8565b92509250509250929050565b600073ffffffffffffffffffffffffffffffffffffffff82169050919050565b60006117c68261179b565b9050919050565b6117d6816117bb565b81146117e157600080fd5b50565b6000813590506117f3816117cd565b92915050565b60006020828403121561180f5761180e61151b565b5b600061181d848285016117e4565b91505092915050565b61182f816117bb565b82525050565b600060208201905061184a6000830184611826565b92915050565b6000602082019050818103600083015261186a81846115df565b905092915050565b60008115159050919050565b61188781611872565b82525050565b60006060820190506118a2600083018661187e565b6118af602083018561187e565b6118bc6040830184611618565b949350505050565b60006020820190506118d96000830184611618565b92915050565b7f566f7573206e27657465732070617320696e7363726974000000000000000000600082015250565b6000611915601783611593565b9150611920826118df565b602082019050919050565b6000602082019050818103600083015261194481611908565b9050919050565b7f4c612073657373696f6e20646520766f7465206e2765737420706173206f757660008201527f6572746500000000000000000000000000000000000000000000000000000000602082015250565b60006119a7602483611593565b91506119b28261194b565b604082019050919050565b600060208201905081810360008301526119d68161199a565b9050919050565b7f566f7573206176657a2064656a6120766f746500000000000000000000000000600082015250565b6000611a13601383611593565b9150611a1e826119dd565b602082019050919050565b60006020820190508181036000830152611a4281611a06565b9050919050565b7f49442064652070726f706f736974696f6e20696e76616c696465000000000000600082015250565b6000611a7f601a83611593565b9150611a8a82611a49565b602082019050919050565b60006020820190508181036000830152611aae81611a72565b9050919050565b7f4e487b7100000000000000000000000000000000000000000000000000000000600052603260045260246000fd5b7f4e487b7100000000000000000000000000000000000000000000000000000000600052601160045260246000fd5b6000611b1e82611525565b91507fffffffffffffffffffffffffffffffffffffffffffffffffffffffffffffffff8203611b5057611b4f611ae4565b5b600182019050919050565b6000604082019050611b706000830185611826565b611b7d6020830184611618565b9392505050565b7f4e487b7100000000000000000000000000000000000000000000000000000000600052602260045260246000fd5b60006002820490506001821680611bcb57607f821691505b602082108103611bde57611bdd611b84565b5b50919050565b7f456e72656769737472656d656e74206465732070726f706f736974696f6e732060008201527f6665726d65000000000000000000000000000000000000000000000000000000602082015250565b6000611c40602583611593565b9150611c4b82611be4565b604082019050919050565b60006020820190508181036000830152611c6f81611c33565b9050919050565b7f4e487b7100000000000000000000000000000000000000000000000000000000600052604160045260246000fd5b60008190508160005260206000209050919050565b60006020601f8301049050919050565b600082821b905092915050565b600060088302611d077fffffffffffffffffffffffffffffffffffffffffffffffffffffffffffffffff82611cca565b611d118683611cca565b95508019841693508086168417925050509392505050565b6000819050919050565b6000611d4e611d49611d4484611525565b611d29565b611525565b9050919050565b6000819050919050565b611d6883611d33565b611d7c611d7482611d55565b848454611cd7565b825550505050565b600090565b611d91611d84565b611d9c818484611d5f565b505050565b5b81811015611dc057611db5600082611d89565b600181019050611da2565b5050565b601f821115611e0557611dd681611ca5565b611ddf84611cba565b81016020851015611dee578190505b611e02611dfa85611cba565b830182611da1565b50505b505050565b600082821c905092915050565b6000611e2860001984600802611e0a565b1980831691505092915050565b6000611e418383611e17565b9150826002028217905092915050565b611e5a82611588565b67ffffffffffffffff811115611e7357611e72611c76565b5b611e7d8254611bb3565b611e88828285611dc4565b600060209050601f831160018114611ebb5760008415611ea9578287015190505b611eb38582611e35565b865550611f1b565b601f198416611ec986611ca5565b60005b82811015611ef157848901518255600182019150602085019450602081019050611ecc565b86831015611f0e5784890151611f0a601f891682611e17565b8355505b6001600288020188555050505b505050505050565b6000611f2e82611525565b9150611f3983611525565b9250828203905081811115611f5157611f50611ae4565b5b92915050565b7f4c657320766f746573206e6520736f6e742070617320656e636f726520636c6f60008201527f7300000000000000000000000000000000000000000000000000000000000000602082015250565b6000611fb3602183611593565b9150611fbe82611f57565b604082019050919050565b60006020820190508181036000830152611fe281611fa6565b9050919050565b6000604082019050611ffe60008301856116bf565b61200b60208301846116bf565b9392505050565b7f4c27696e736372697074696f6e2064657320656c65637465757273206573742060008201527f6665726d65650000000000000000000000000000000000000000000000000000602082015250565b600061206e602683611593565b915061207982612012565b604082019050919050565b6000602082019050818103600083015261209d81612061565b9050919050565b7f456c6563746575722064656a6120696e73637269740000000000000000000000600082015250565b60006120da601583611593565b91506120e5826120a4565b602082019050919050565b60006020820190508181036000830152612109816120cd565b9050919050565b7f4d617576616973206574617420647520776f726b666c6f770000000000000000600082015250565b6000612146601883611593565b915061215182612110565b602082019050919050565b6000602082019050818103600083015261217581612139565b9050919050565b7f4c27656e72656769737472656d656e742064657320656c65637465757273206560008201527f73742064656a61207465726d696e650000000000000000000000000000000000602082015250565b60006121d8602f83611593565b91506121e38261217c565b604082019050919050565b60006020820190508181036000830152612207816121cb565b9050919050565b7f4c6520766f7465206e27612070617320656e636f72652065746520636f6d707460008201527f6162696c69736500000000000000000000000000000000000000000000000000602082015250565b600061226a602783611593565b91506122758261220e565b604082019050919050565b600060208201905081810360008301526122998161225d565b9050919050565b7f4c27656e72656769737472656d656e742064657320656c65637465757273206560008201527f73742064656a6120636f6d6d656e636500000000000000000000000000000000602082015250565b60006122fc603083611593565b9150612307826122a0565b604082019050919050565b6000602082019050818103600083015261232b816122ef565b905091905056fea264697066735822122062f19c53e88ff436bf53f61a2cb155a5128dd2a43b8ab83b83cbb0644b11b02a64736f6c634300081c0033",
  "linkReferences": {},
  "deployedLinkReferences": {}
}